:020000040800F2
:1000000000400020415F0008F55D0008F75D000832
:1000100000000000000000000000000000000000E0
:10002000000000000000000000000000359C0008F7
:100030000000000000000000019D0008459D000830
:10004000915F0008915F0008915F0008915F0008D0
:10005000915F0008915F0008915F0008F95D00085A
:10006000915F0008915F0008915F0008915F0008B0
:10007000915F00080D5E0008915F0008915F000825
:10008000915F0008215E0008315E0008915F000862
:10009000915F0008915F0008915F0008915F000880
:1000A000915F0008915F0008915F0008455E0008BD
:1000B000555E0008915F0008915F0008915F00089D
:1000C00010B5064C2378002B07D1054B002B02D02E
:1000D000044800E000BF0123237010BD7C00002015
:1000E00000000000D8AA0008044B10B5002B03D074
:1000F0000349044800E000BF10BDC04600000000F6
:1001000080000020D8AA000802780B78002A03D0CB
:10011000013001319A42F7D0D01A70470023C25CF7
:100120000133002AFBD1581E7047000002B471460B
:1001300049084900095649008E4402BC7047C04630
:1001400002B4714649084900095C49008E4402BC6A
:100150007047C04603B47146490840004900095E33
:1001600049008E4403BC704703B4714649084000FF
:100170004900095A49008E4403BC704700224308D5
:100180008B4274D303098B425FD3030A8B4244D35F
:10019000030B8B4228D3030C8B420DD3FF220902A1
:1001A00012BA030C8B4202D31212090265D0030B60
:1001B0008B4219D300E0090AC30B8B4201D3CB0356
:1001C000C01A5241830B8B4201D38B03C01A524198
:1001D000430B8B4201D34B03C01A5241030B8B429A
:1001E00001D30B03C01A5241C30A8B4201D3CB0285
:1001F000C01A5241830A8B4201D38B02C01A52416A
:10020000430A8B4201D34B02C01A5241030A8B426C
:1002100001D30B02C01A5241CDD2C3098B4201D384
:10022000CB01C01A524183098B4201D38B01C01A02
:10023000524143098B4201D34B01C01A5241030979
:100240008B4201D30B01C01A5241C3088B4201D328
:10025000CB00C01A524183088B4201D38B00C01AD5
:10026000524143088B4201D34B00C01A5241411AFC
:1002700000D20146524110467047FFE701B5002009
:1002800000F0F0F802BDC0460029F7D076E77047CD
:1002900003460B437FD4002243088B4274D30309E7
:1002A0008B425FD3030A8B4244D3030B8B4228D388
:1002B000030C8B420DD3FF22090212BA030C8B42AE
:1002C00002D31212090265D0030B8B4219D300E04E
:1002D000090AC30B8B4201D3CB03C01A5241830BD3
:1002E0008B4201D38B03C01A5241430B8B4201D383
:1002F0004B03C01A5241030B8B4201D30B03C01AAC
:100300005241C30A8B4201D3CB02C01A5241830A25
:100310008B4201D38B02C01A5241430A8B4201D354
:100320004B02C01A5241030A8B4201D30B02C01A7E
:100330005241CDD2C3098B4201D3CB01C01A5241E5
:1003400083098B4201D38B01C01A524143098B426E
:1003500001D34B01C01A524103098B4201D30B0157
:10036000C01A5241C3088B4201D3CB00C01A52417C
:1003700083088B4201D38B00C01A524143088B4241
:1003800001D34B00C01A5241411A00D201465241DA
:10039000104670475DE0CA0F00D04942031000D3F9
:1003A0004042534000229C4603098B422DD3030A4E
:1003B0008B4212D3FC22890112BA030A8B420CD35E
:1003C000890192118B4208D3890192118B4204D387
:1003D00089013AD0921100E08909C3098B4201D307
:1003E000CB01C01A524183098B4201D38B01C01A41
:1003F000524143098B4201D34B01C01A52410309B8
:100400008B4201D30B01C01A5241C3088B4201D366
:10041000CB00C01A524183088B4201D38B00C01A13
:100420005241D9D243088B4201D34B00C01A5241EA
:10043000411A00D20146634652415B10104601D377
:100440004042002B00D54942704763465B1000D301
:10045000404201B5002000F005F802BD0029F8D0A7
:1004600016E770477047C046052310B586B002A94D
:1004700004AC0870220000930348043B07F05EF8C8
:10048000207806B010BDC04624140020002070B5AE
:1004900005000226124B1B68AB4200DC70BD72B631
:1004A000002204210F4806F0DFF9D720FFF7DCFF18
:1004B000FF20FFF7D9FF012204000421094806F0BC
:1004C000D3F962B6631EDBB2FD2B04D8230604D435
:1004D00001200135DEE73000FBE70020DEE7C04603
:1004E0009C000020000C0048F7B51C000192274B2F
:1004F000089A05000E001A60FFF7C8FF012834D0E3
:10050000022840D072B600220421214806F0ACF93E
:100510002800FFF7A9FF2F0002239F43D42F02D109
:100520000020FFF7A1FF200CC0B2FFF79DFF200ABB
:10053000C0B2FFF799FFE0B2FFF796FF842D01D01C
:10054000872D13D1002403E0305DFFF78DFF0134C8
:10055000019BA342F8DC012204210D4806F084F936
:1005600062B60C4806F0C4F90020FEBDD42FF2D1CB
:10057000002404E0FF20FFF777FF30550134019B92
:10058000A342F7DCE7E70620EFE7C0469C00002027
:10059000000C00481414002070B572B60A4D0022F9
:1005A0000421280006F060F9D720FFF75DFFFF2047
:1005B000FFF75AFF012204000421280006F054F935
:1005C00062B6200070BDC046000C004810B5012284
:1005D0000421064806F048F9C822054B1A60FFF7C7
:1005E000DBFF01231840034B186010BD000C0048CE
:1005F0009C0000209800002037B504000A25FFF772
:1006000045FF002802D0013D002DF8D1074B812085
:100610001B685A425341AF220833920000929C401B
:10062000002223001100FFF75FFF37BD9800002074
:10063000F0B5002487B0039015002000284B04AECD
:100640003380284B05AF02913B80AC4203DB01288D
:1006500025D101251EE0FFF719FF00281DD1224BEF
:10066000029A134004D50222013B52421343013344
:100670008022FC5C52002F00954200DD1700F05CE8
:10068000AF26B60000233A0003990096FFF72CFF2F
:10069000051E08D0280007B0F0BD0134D5E70228B8
:1006A000DDD10625F6E7114B01001B6800965A4282
:1006B0005341029A08339A40130002002000FFF7CA
:1006C00013FF2C00BC4204DB0128C2D00228E8D072
:1006D000E0E7FFF7DBFE0028DCD00134F2E7C0469C
:1006E0008487FFFF8889FFFF0100008098000020B9
:1006F000F0B587B00293184B0500160004A8174AFE
:10070000038005AB1A80164A0A4004D50224013A38
:100710006442224301329F5C124B805C1B68C824F8
:100720005A42534108330022994000940B001100B3
:10073000FFF7DAFE8023029A03905B009A4200DD05
:100740001A003300290038000094FFF7CDFE039B08
:100750000343D8B207B0F0BD53550000D4D6FFFF15
:10076000010000809800002010B50449044803F0FF
:1007700041FD0449044803F03DFD10BD90AB000865
:10078000A1AB0008AEAB0008BFAB0008094B10B529
:1007900059781A78987809021143DA7800040143ED
:1007A00012060A435979187909020143024803F0F5
:1007B00021FD10BDD0080020CCAB00080E4B70B559
:1007C0003C211E6818681C68FFF75EFD20000D00C4
:1007D0003C21FFF7D3FC3C21FFF756FD0C00E12143
:1007E00030000901FFF7CAFC2B000100220003487A
:1007F00003F000FD70BDC0467C120020E3AB000892
:1008000010B5064C2378002B00D110BD21690029BA
:1008100002D0034803F0EEFC1434F3E7E8B200081A
:10082000FBAB000810B5B2B0684608F02AFA002801
:1008300019D16846FFF772FC01000C4803F0DAFC9E
:100840000B4803F0D7FC0B4C200003F0D3FC6846A8
:1008500003F0D0FC09F052FB0100074803F0CAFC8A
:10086000200003F0C7FC32B010BDC04602AC000847
:1008700044AC000871AC00089EAC0008F8B50D004F
:10088000022818DC02F09EF90700174803F0B2FCBA
:100890000C26012415483C4200D115486400013E55
:1008A00003F0A8FCA4B2002EF4D10B222968114851
:1008B00003F0A0FCF8BD486809F026FB0400A86816
:1008C00009F022FB05000B2C03DD0B4803F092FC22
:1008D000F0E702002100094803F08CFC2900200009
:1008E00001F092FEE6E7C046B2AC0008BFAC0008DB
:1008F000C3AC0008C7AC0008EDAC000802AD0008AE
:10090000F8B50D00022818DC01F078FE0700174842
:1009100003F070FC0C26012415483C4200D1154818
:100920006400013E03F066FCA4B2002EF4D10B2259
:100930002968114803F05EFCF8BD486809F0E4FA44
:100940000400A86809F0E0FA05000B2C03DD0B4851
:1009500003F050FCF0E702002100094803F04AFCD4
:100960002900200001F030FEE6E7C04610AD000887
:10097000BFAC0008C3AC00081FAD000847AD0008BD
:100980005CAD000810B5074803F034FC0A2005F000
:1009900023FBBFF34F8F044B044ADA60BFF34F8F42
:1009A000C046FDE76CAD000800ED00E00400FA056C
:1009B00030B585B001AD280001F0BAFC074803F05E
:1009C00019FC0024295D0648013403F013FC0C2CAB
:1009D000F8D1044803F00EFC05B030BD84AD00082A
:1009E00094AD000881AD0008F0B585B007000C009B
:1009F00006F0A6FA204B05001A685B6803A8D66AC1
:100A0000019301F0A1FC012F1EDC01991B4B013663
:100A10000131280071431F88FFF7B0FB3A00010045
:100A2000174803F0E7FB174D02AB9988280003F045
:100A3000E1FB02AB2800D98803F0DCFB21681248F7
:100A400003F0D8FB05B0F0BD606809F05DFA040062
:100A5000431C06D00125642804D90C4803F0CAFBC6
:100A6000F0E7050021000A4803F0C4FB290020003C
:100A700001F072FCE6E7C04634150020B4110020F6
:100A800099AD000895AD0008BCAD0008D7AD0008D1
:100A9000EDAD0008F3B51B4B1B491B78FFB0002BD5
:100AA00000D11A491A4803F0A5FB1A4B1A481988B5
:100AB000802589B203F09EFB184803F09BFB80223F
:100AC00001216846920001F04DFA00240F26AD0086
:100AD0002300270033400134002B06D110482100A9
:100AE00003F088FB0F4805F003FF6B460E48D95D05
:100AF00003F080FBAC42EBD10C4803F07BFB7FB0F2
:100B0000F3BDC046B702002000AE0008FDAD0008EE
:100B10000AAE0008B402002015AE00082AAE000894
:100B200034AE0008141400203CAE000881AD00086B
:100B3000F7B501F0B5FB050001F0B6FB0024060097
:100B40000A273800315D6043CB078907C90FAA1D0A
:100B5000125ADB0F009104482100013403F04AFBD4
:100B60000C2CEED1F7BDC04641AE000810B5FFF722
:100B700013FD04000100054803F03CFB0448E307B3
:100B800000D4044803F036FB10BDC0466CAE00082C
:100B900089AE0008A1AE000810B501F0A9FA040062
:100BA00001F0A0FA21000200014803F023FB10BD70
:100BB000B9AE000813B50C00012810DC03F038FBB7
:100BC00001000D4803F016FB04230193013B009341
:100BD000012221680948013B03F00CFB13BD486862
:100BE00009F092F904000100054803F003FB20001E
:100BF00003F018FBF2E7C046CFAE0008DEAE0008F7
:100C000015AF0008F0B506000D0097B0012804DC10
:100C10000968384803F0EEFA10E0486805F052F928
:100C20000F230400184200D09C43022E08D1270055
:100C3000FF37BC420ED9304803F0DCFA17B0F0BDE4
:100C4000A86805F03FF90F23C7181842F1D0834375
:100C5000C718EEE73A002100284803F0CBFA5022EB
:100C6000002102A809F08BF9002326003B25009300
:100C70000F231E4215D1224805F03AFEB44208D097
:100C80003A2302AA9B1820221E481A7002A903F0D8
:100C9000B1FA32001C4902A809F098FA00233B255A
:100CA0000093032033781949DBB20193009B019A2A
:100CB000584302AB0A30C01809F088FA009B013390
:100CC0000093019B203B5E2B0FD92E2302AA535584
:100CD00001350136EDB2B742CAD23A2302AA9B18B7
:100CE000202208481A7002A994E7019A02AB5A55CB
:100CF000EEE7C0462AAF00084DAF00085EAF00081F
:100D000014140020FDAB000874AF00087BAF00088E
:100D1000F0B50600DBB048680F0009F0F5F80400F4
:100D2000B86805F0CFF821000200019005002848BE
:100D300003F060FA274906A809F076FAF31E029339
:100D4000082B01DD082302930F23002604AA9B1819
:100D500003933B00B2000C33985805F0B3F804AB92
:100D6000F0540200FF231C491A40039809F02EFAA0
:100D7000039B013603330393029BB342E9D1174827
:100D800006A903F037FA80231AAF00225B00210086
:100D9000380004F017F8019B029E9C46624604ABA3
:100DA0006644981AFF2D04DC435D7B550135AE4245
:100DB000F8D1802221003800520003F02DFF0028D6
:100DC00003D02100064803F015FA5BB0F0BDC04621
:100DD00081AF00082CB90008A1AF0008FDAB0008E6
:100DE000A7AF000810B5032809DC096805480822E8
:100DF00003F000FA0449054803F0FCF910BDFFF7C1
:100E000087FFFBE7C0AF0008FF070000FAAF00084C
:100E1000F0B50600DBB048680F0009F075F8040073
:100E2000B86805F04FF8210002000190050028483D
:100E300003F0E0F9274906A809F0F6F9F31E02933A
:100E4000082B01DD082302930F23002604AA9B1818
:100E500003933B00B2000C33985805F033F804AB11
:100E6000F0540200FF231C491A40039809F0AEF920
:100E7000039B013603330393029BB342E9D1174826
:100E800006A903F0B7F980231AAF00225B00210006
:100E9000380003F097FF019B029E9C46624604AB1C
:100EA0006644981AFF2D04DC435D7B550135AE4244
:100EB000F8D1802221003800520003F0BDFE002846
:100EC00003D02100064803F095F95BB0F0BDC046A1
:100ED00081AF00082CB90008A1AF0008FDAB0008E5
:100EE000A7AF000810B5032809DC096805480822E7
:100EF00003F080F90449054803F07CF910BDFFF7C1
:100F000087FFFBE7C0AF0008FF070000FAAF00084B
:100F1000F8B507000E00012805DC144A09681448DA
:100F200003F068F9F8BD486808F0EEFF040005001A
:100F3000022F03D0B06808F0E7FF050080231B01F3
:100F40009D4200DB094D2A0021000A4803F052F9B6
:100F5000A542E7DB2100084803F04CF9200003F02C
:100F600054FE064803F046F90134F1E7FF0700009C
:100F700015B000083CB0000853B0000865B0000888
:100F8000F0B506000D00D9B0012809DC0968454814
:100F900003F030F94449454803F02CF959B0F0BD4D
:100FA000486808F0B1FF012304000293022E03D029
:100FB000A86808F0A9FF029000230093009B029A02
:100FC00093425CDA802300225B00210018A803F022
:100FD000F9FE5022002104A808F0D1FF2100009A58
:100FE000334803F007F923020393002331251E0041
:100FF0000193039B9F190F231F4217D103F01EF982
:10100000002840D0002E05D0202210AB1A7004A872
:1010100003F0F0F83900274803F0ECF850220021E3
:1010200004A808F0ACFF002331250193032018AB7E
:101030009F5D019B3A00584304ABC0181E4909F05C
:10104000C5F83B00203B5E2B26D92E2304AA53551E
:10105000019B01350133019380230136EDB25B0022
:101060009E42C6D10025202210AB1A7004A803F0BE
:10107000C1F8124803F0BEF80134002D0FD00F481C
:1010800003F0B8F88AE703F0E1F820239843C0B2F0
:101090005128B7D10125E6E704AB5F55D8E7009B9F
:1010A00001338AE76EB00008FF070000FAAF0008BE
:1010B0009AB00008AAB000087BAF000881AD000814
:1010C000F8B5502358430D4BC6181B5C002B0FD0AE
:1010D0000B4C00252000FFF721F80700AF4208DC89
:1010E0003100200009F0A0F82100064803F082F842
:1010F000F8BD054803F07EF80135EFE7F400002065
:10110000A40000201FBA0008B3B00008002200B5F8
:1011100093B04423110001A803F054FE002804D129
:101120004422034801A908F021FF13B000BDC046C6
:1011300034120020802210B500210248520003F032
:101140006BFD10BD3412002010B5442492B0220073
:10115000084901A808F00AFF2100074803F04AF8EF
:10116000220001A9054808F001FFFFF7E3FF12B0D4
:1011700010BDC046F0AA0008B7B000083412002025
:1011800010B50020FFF7E0FF074803F033F80A200E
:1011900004F022FFBFF34F8F044B054ADA60BFF320
:1011A0004F8FC046FDE7C0466CAD000800ED00E083
:1011B0000400FA0510B5034803F01CF8FFF7BAFF66
:1011C00010BDC046D5B00008F8B50D00022819DCE6
:1011D00000240127184803F00DF8184E04363B0090
:1011E000A340F28F31211648134200D1302101343F
:1011F00003F000F80C2CF2D10B222968114802F000
:10120000F9FFF8BD486808F07FFE0400A86808F000
:101210007BFE05000B2C03DD0B4802F0EBFFF0E733
:1012200002002100094802F0E5FF2900200001F03A
:101230003FF8FFF77FFFE4E7E7B000083412002033
:10124000F7B00008FBB0000820B1000831B1000879
:1012500010B50C0001280ADC0E4B0F480233D98F61
:1012600002F0C8FF21680D4802F0C4FF10BD4868B5
:1012700008F04AFE431E04000100FE2B01D9084875
:10128000F2E7084802F0B6FF024B0233DC87FFF7B3
:1012900051FFEBE7341200203EB1000852B10008C4
:1012A00070B1000885B1000813B5174B0C0000930E
:1012B000164B0193012810DC6946154B1548DA8F4F
:1012C0009B8F9B00595802F095FF1348216802F04C
:1012D00091FF124802F08EFF13BD486808F014FE1B
:1012E0000400012804D901000D4802F083FFF3E750
:1012F0006A46830099580B4802F07CFF044B9C8798
:10130000FFF718FFE8E7C0467CAB000887AB000892
:10131000341200209DB10008C3B10008E1B10008FB
:1013200008B200081CB2000813B5154B0C0000935E
:10133000144B019301280EDC6946134B1348DA8FD6
:101340009B8F9B00595802F055FF114A21681148A4
:1013500002F050FF13BD486808F0D6FD0C4B0400A6
:101360000100984203DD0C4802F044FFF2E70B480D
:1013700002F040FF044BDC87FFF7DCFEEAE7C046E3
:101380007CAB000887AB0008341200209DB1000838
:10139000E8FD00002DB2000870B100084BB2000853
:1013A00010B50C00012809DC0E4B0F48198A02F019
:1013B00021FF21680D4802F01DFF10BD486808F0AC
:1013C000A3FD8023421E040001009B009A4201D32A
:1013D0000748F0E7074802F00DFF024B1C82FFF7B9
:1013E000A9FEEAE73412002061B2000874B20008D6
:1013F0008FB20008A6B200081FB50C21040001A896
:1014000003F0DEFB0C22011E04D0200001A908F02D
:10141000ADFD1FBD200008F0B2FDFAE730B587B082
:101420006C46200000F030FF03A8030026CC26C342
:101430000C2103F005FC07B030BD000010B5C82238
:101440000024064B2100520005481C6008F097FD5F
:10145000044B1C70044B1C7010BDC046A000002043
:10146000F40000208502002084020020F7B502F07D
:10147000E5FE00284AD102F0E9FE0A2801D00D2835
:101480001BD10A2002F0B0FF0D2002F0ADFF7B4B14
:101490007B4F1B6801930023019ABB543B78002BC0
:1014A00068D150220021380008F069FD0023734AFA
:1014B0007448136002F09EFE28E01B2839D1724C5C
:1014C000013C002C22D002F0B9FE0028F8D102F035
:1014D000BDFE0300413BDBB2032BF1D8412816D1FE
:1014E0006A4B1A78002A11D0694B1978914200D3BF
:1014F0001A701A78002A01D0013A1A701878FFF78A
:10150000DFFD5F48FEF70AFE5C4B1860F7BD42281E
:10151000FCD15F495D4A0B7812789342F6D20133D1
:10152000DBB29A4202D90B700878E8E7013A0A70F8
:10153000FAE7524C2368082801D07F2811D1002BEC
:10154000E4DD082002F050FF202002F04DFF0820CB
:1015500002F04AFF00212368494A013B2360D1542D
:10156000D4E74E2BD2DC464AD0540133236002F03C
:101570003BFFCBE73F2B02D120227B703A70434BDD
:10158000444D1C78002C45D05021631E594338002F
:101590006918FEF7B9FD002837D13D4B1C703B00A0
:1015A000002201243C4D2F6019000133581E0078A1
:1015B00020284CD0002A00D0296000262C682378EF
:1015C000202B46D02021200008F020FE2860002893
:1015D00003D000230370013028602378002B08D04B
:1015E0002E4AB3000136D4500A2E02D02B68002BAD
:1015F000E4D10025294B2A4C1B6801932378002B4A
:101600002AD1284802F0F6FD4BE701232E00019372
:10161000042C0DD8502060433900281808F004FE2F
:101620001A4B01341C70194B1A78194B1A70B6E713
:1016300030005036310008F0F7FD019B0133019373
:10164000052BF5D13900184808F0EEFDEBE7220034
:10165000AAE701342C60B1E7601C0199FEF754FD44
:101660001434002808D114235D430D4B30005D195C
:10167000EB680A49984714E70135BFE7A00000204E
:10168000A4000020BDB20008122700008402002040
:1016900085020020F4000020B00200208802002013
:1016A000E8B20008C3B200083402002070B501257A
:1016B000060005F045FC074A310014682368AB4377
:1016C00023605660FEF75AFDE06023681D432560E5
:1016D00070BDC046DC16002070B53F4C0500207878
:1016E000062800D975E0FEF72BFD323232041B3993
:1016F00053003A48FFF7DAFF39483A4903681A7845
:101700000133036038480A700388013B0380374B7C
:1017100028001A80012206F0F9FC0523237016E048
:101720002F4A304913681878013313602E4A087025
:1017300013882800013B13800523CC2223702B4BF8
:101740001A8000222A4B1A70013206F0DFFC23783F
:10175000002B02D01422274B1A6070BD224E338812
:101760005A1E3280002BF2D01D4A1368591C11609A
:101770001E4A187813881B491B1813800870012211
:10178000280006F0C3FC3388002BE0D10633C5E700
:10179000280006F037FF212800D1FEE708210126A6
:1017A00090200022144BC0051970114B06391E7091
:1017B000124B22701E7005F057F8114B28001A6862
:1017C000202311680B4313600E49320007F0F2F931
:1017D000BDE70023A2E7C0460C0B002090D0030019
:1017E000E8080020160B0020020B0020040B00204C
:1017F000060B0020FC0900200D0B0020F80900203A
:10180000DC1600200E0B00200222074B10B5074902
:101810001A70074B013A1A700B889B189BB20B8009
:10182000044907F0C7F910BDF2090020B8020020F2
:10183000B60200200E0B0020F7B5644C644B0190FB
:1018400020781D78062800D9BDE0FEF779FC3EBC63
:10185000044D95A03E005F4A1378002B35D05E4BB7
:10186000198801311980002D03D0CC2D33D00222EC
:1018700028E0157059495A4A09881088884200D0D2
:101880001180584858490578002D02D00D8801353F
:101890000D800988042909D954490D88002D05D1E6
:1018A00001261288524D92B22E700A80514A524936
:1018B0001160524A1168524A4D1C156000220A708C
:1018C00002700332227001221A80012240490198DD
:1018D00007F070F9F7BD14204A4908600021117023
:1018E000494A15700522EDE70123484A3A4E137024
:1018F0003C4A1370802332889B009A4200D933807F
:101900003A4A338812883E4F013A934227D1364BE8
:101910001B88002B02D12E2002F066FD3B682F4A67
:101920001D703388002101339BB213800422227082
:10193000374A33801170374A13802B4B1A88042A98
:10194000C3D905221A800123334A1370334A137016
:10195000334A2A4B1168186819601060B5E73A6875
:101960000133511C15701D4A9BB213800222338033
:10197000274B39601A70A8E7184A2A49138801339F
:101980009BB28B4201D813809FE711809DE7142200
:10199000022011491B4B1A600B881B4AD554013396
:1019A0009BB20B801A490870172B00D88DE79278EC
:1019B0001D4802800232934200D086E703230B7059
:1019C000DB18237081E70023FBE7C046F209002003
:1019D0000E0B0020B6020020080B00200A0B00208E
:1019E000BA020020CF080020CC080020BC02002052
:1019F000CE080020C80800200E060000E0080020E5
:101A0000E4080020FC090020EE080020BE020020AF
:101A1000F8090020C4080020BF020020B7020020FF
:101A2000DC08002001020000F4090020F8B50024C1
:101A3000414B424F1C80424B424D1C80424B2A007E
:101A40001C80424B21001C80414B38001C80414BC4
:101A50001C80414B1C80414B1C70414B1C7008F09A
:101A60008EFA2A0021003F4808F089FA3E4E2A00EB
:101A70002100300008F083FA3C4B3A4A1F603C4B8F
:101A800001271A603B4B3C4A1E603C4B1C803C4B80
:101A90001A603C4B1C703C4B1C703C4B1C703C4B0C
:101AA0001C703C4B1C703C4B1C703C4B1C703C4BEA
:101AB0001C803C4B1C803C4B1C803C4B1C703C4BAA
:101AC0003C4E1C703C4B3D481C703D4B1C703D4BCC
:101AD0001C803D4B1C803D4B1F703D4BD9880A0A32
:101AE00072719A683171130A7370130CB370130E0C
:101AF0003270F37002F07EFBCC23364D06222100BB
:101B000035482B706F70AC7008F039FA73796B72CE
:101B10003379AB72F378EB72B3782B7373782F74DD
:101B20006B733378EC73AB736C74AC74EC742C75AE
:101B30006C75AC75EC75F8BD080B0020C002002078
:101B40000A0B002001020000CC080020B402002093
:101B5000B8020020BA020020BC020020CE080020FB
:101B6000B6020020C1040020C2060020D8080020D0
:101B7000E0080020DC0800200E060000C408002059
:101B8000C8080020CF080020BF020020BE020020AD
:101B9000B70200200D0B00200C0B0020EC080020E9
:101BA000F4090020F0090020F6090020ED080020CB
:101BB000F8090020D0080020F2090020CCAB000872
:101BC000070B0020020B0020040B0020060B002056
:101BD00034120020000A0020030A0020902010B5D3
:101BE00000220221C00504F03FFE012209480368DB
:101BF00019689143196020211C688C431C601C6883
:101C000014431C601C6821431960034906F0D2FF8D
:101C100010BDC046DC1600200E0B0020AB4AF8B504
:101C20001368AB49002B31D01068AA4B984209D8F1
:101C30000023A9480B700380A8480380012010608E
:101C4000A74A1370A74A0B781178994207D0A64982
:101C50001370002B00D1A549A54802F05FFBA54BEE
:101C60001A78002A07D000221A709B4BA2481988C4
:101C700089B202F053FBA14C207809281DD8FEF749
:101C80005FFA0C3A1C1C1C8C1CDECEE19C4B1A78B3
:101C9000012AD7D101321A70D4E79A4B1B78002B56
:101CA0000BD00023984A90201370984A0221138089
:101CB0000122C005227004F0D7FD954D2B78032B2F
:101CC00000D1C1E0042B00D1FBE08F4B1B78002B2F
:101CD00010D1904B1E68002E0CD18F4C2378062B10
:101CE00008D18E4802F01AFB8D4B2E7026701E70A4
:101CF000FFF774FFF8BD8B4B864F1D788A4E002D81
:101D000017D000237F4A894913707F4A1370052238
:101D10004133FF333B6033780B70814B1A700623DD
:101D20002370834B12321A80824A834B1A6001223D
:101D300029E08248FFF7BAFC724B2A001D70724BF3
:101D400028001D70A0235B003B6001276F49743B96
:101D50003370B3780D80934219DC5F1C002D00D0E6
:101D600008800A88110AF154F255714A023313802F
:101D70000322714B6D491E60694B1A700623237054
:101D80000023023A0B706E4806F0C0F995E7B55C87
:101D90000132401980B23D00DDE75A4A1378002B2A
:101DA00000D18AE700231370574A5F4D1370A022B9
:101DB000584B52001A605B4B1E78002E10D05C4BC3
:101DC000293AFF3A1A8005222B7858490B70544B58
:101DD0001A700623564A23701388013B1380A3E729
:101DE0005848FFF763FCCC233200300001274749F5
:101DF0002B70AB780E8093420BDC5F1C002E00D062
:101E000008800A88110AE954EA55494A02331380C6
:101E1000D9E7AE5C0132801980B23E00EBE790203A
:101E200000220221C00504F01FFD2023444802685F
:101E300011680B4313604449012206F0BBFE0923DD
:101E400023703AE70023FBE7002301201F0019005D
:101E500084463E4A3E4E12883E4C3380E05C9A42B5
:101E600026DC0132002F00D03180A25C3A4F030201
:101E700013433B80627D217DA37D384802F04EFAFA
:101E800031883A88914218D1200002F0CDFF002815
:101E900008D02100244803F0B5FB002802D001221D
:101EA000184B1A70042300222B701B4B1A700CE77E
:101EB0000918674689B20133D0E7294802F02EFAA3
:101EC000F0E70023144A2B701370FEE6C8080020C8
:101ED000B7020020E2040000BC020020CC08002071
:101EE000CF0800201E0B002000AE0008FDAD00084A
:101EF0005BB80008CE08002068B800080D0B002071
:101F0000BE020020070B0020060B0020040B00205F
:101F1000F8090020FC090020F2090020D6B80008CA
:101F20000C0B002071170020000A0020160B002067
:101F3000020B0020010A0020E808002050C3000026
:101F4000DC16002090D003000E0B0020F4090020C6
:101F5000F0090020EE080020F609002084B80008EF
:101F6000A8B8000810B5034B1B68591807F0FEFF0E
:101F700010BDC046D8080020020000200D49F0B571
:101F80000B78834210D00C4C208800280AD00B4ECE
:101F90000B4B35681F681D6001233760984204DCD5
:101FA0000023238000230B70F0BDEE5CD654013378
:101FB000F4E7C046BF020020C4080020DC0800206F
:101FC000D8080020034B0360034B0B608023136091
:101FD0007047C046200D0020200B002000233E202B
:101FE00010B50B4A9900013388501E2BFAD10023FB
:101FF000084A09481370094A1380094A14331380A8
:10200000084A1380C822084B1A6004F093FA10BDE6
:10201000DC0D0020580E0020D4130020560E0020A6
:10202000540E00205A0E00205C0E002070B5264D84
:10203000287804280DD8FEF783F844030D1E3600D7
:10204000224B1B68002B04D1214804F03BF90223EA
:102050002B7070BD1E4E0121300004F07DF9002868
:10206000F7D11C4B30001C8804F0DAF91A4BA4009D
:1020700018510323ECE700242000174AA3009B58C3
:102080000134C0181E2CF9D12100FEF777F8134B4C
:10209000104E188030882100013080B2FEF7F4F82D
:1020A00004233180D4E70D4B09481A88A5235B002F
:1020B00053430B4A9B12138004F030F9C822034BA0
:1020C0001A600123C4E7C046580E00205C0E0020B1
:1020D000D4130020560E0020DC0D0020540E0020EA
:1020E0005A0E0020014B18887047C046540E00203D
:1020F000014B18887047C0465A0E0020012102008B
:1021000010B50A400400084200D00A00104804F04C
:10211000ABFB022122000A400C4200D001220C48F5
:1021200004F0A2FB042122000A400C4200D001224C
:10213000074804F099FB082322001A401C4200D0F3
:10214000012280210248C90004F08EFB10BDC04668
:102150000004004873B504000D00160072B600229A
:1021600004F082FB6A4600231370330A69465370F9
:10217000967005230322054805F014F90122290071
:10218000200004F071FB62B673BDC04688140020C5
:1021900002008021902010B5C900C005FFF7DAFFCA
:1021A00010BD000002000C2030B55043114B002937
:1021B00015D11D186C68195001346C60032C0DDDAD
:1021C000A968012905D10C485400215A013189B26E
:1021D00021520C20504300221B189A6030BD002170
:1021E0001A5801321A501B185960032AF6DD0122D1
:1021F000F3E7C046B811002028110020F7B50024ED
:10220000164B01909A1CD28F0121009222000433B8
:10221000DE8F134B01985D79875C0098874205D269
:102220000F00974038003040374211D0002D02D1C6
:10223000597119710C00013208330C2AEAD1002CB3
:1022400005D0084B0B3A1A70074B63321A60F7BD82
:10225000012DF0D158711D71ECE7C04634120020F9
:102260003C110020A0110020D80E00207047000073
:10227000034BDA8F64235343024A13607047C0460E
:1022800034120020DC0E00200200044B0C3259797D
:102290000833017001309042F9D170473C110020A1
:1022A00000487047600E002000487047A8110020C9
:1022B000F8B504000D0007F0FDFC0B2C0FD801262B
:1022C00037001448A7400430C28F1349E300B542D9
:1022D00008D13A43C2870222CB18FF329A8007F016
:1022E000F5FCF8BDBA43C2870C4ACB181278002A15
:1022F00001D05E71F3E79E80094B1888094B0419E1
:10230000195DFF29EBD11A553222074B1E70074B7E
:102310001A60E4E7341200203C110020B7020020CC
:10232000240F0020260F0020A0110020D80E00202E
:102330000200044B0C32D9880A33017001309042FC
:10234000F9D17047600E0020024B1A8802805B882A
:10235000438070472C1100200E4B012908D11860D2
:102360001B685A1C08D01800642808DD642006E0A9
:102370004A1CF5D11960F3E72328F5DA2320064B30
:102380001A88824205D01880044B1A68D36A181A3A
:102390005063704704000020B41100203415002061
:1023A000F0B5012287B08021684804F05DFA8021F1
:1023B00001226648890004F057FA8021902001220A
:1023C0008900C00504F050FA8021902001224900C4
:1023D000C00504F049FA802101225C48490004F05C
:1023E00043FA8021902000240122C900C00504F096
:1023F0003BFA40220021564807F0C1FD1822002177
:10240000544807F0BCFD78220021534807F0B7FD7F
:10241000524F60220021380007F0B1FD0C2200214C
:102420004F4807F0ACFD042200214E4807F0A7FDFD
:10243000042200214C4807F0A2FD4C4E00214C4ADA
:10244000300007F09CFD4B4B4B4D1C704B4B02A8D2
:102450001C804B4B1C804B4B1C802A8A4A4B1A8099
:102460006B46991D02F0A8FB0100A04234D10C225A
:1024700003A807F084FD802190200024414BC9006F
:102480001A88C005FFF766FE404B21001C80404BB8
:1024900023201C80FFF760FF2000FFF72FFE3D4B3D
:1024A0003D4A1C603D4B1C60012313703C4A137075
:1024B000344A13801E223B4B1A603B4B143A1A607D
:1024C00064233A4A13603A4A13602B4AD28F53432B
:1024D000384A136007B0F0BD03A80435FEF78CFF3F
:1024E000E98F354801F01AFF344801F017FF03ADBA
:1024F0002978334801F012FF01232A78A3402249AA
:10250000002A06D118001C4A0432D28F1040134210
:1025100018D0FF200A8831198854184A17491288A0
:102520001BB21A430A80164A11880B4313800223F8
:10253000BB710134013508370C2CD9D1214801F089
:10254000EDFE98E70B883219D054F2E700080048F6
:10255000E40E0020B8110020600E00203C11002085
:10256000A81100202C11002028110020260F002087
:1025700001020000A011002034120020B61100203A
:10258000D01100209E110020240F0020D211002025
:10259000B4110020000000209D11002038110020FF
:1025A0009C110020E00E0020A4110020301100201A
:1025B00034110020DC0E002009B900081EB9000803
:1025C00095AD000881AD000810B50B2810DC012383
:1025D000834009481BB20024025F002909D01A4336
:1025E00092B28021028090204900C005FFF7B2FD21
:1025F00010BD9A43F4E7C046B6110020014B18887D
:102600007047C046B611002010B50B280FDC01231F
:10261000834008481BB20024025F002908D01A43F7
:10262000802192B2028049000348FFF793FD10BD5C
:102630009A43F5E7D011002000080048F7B5C44ED2
:1026400035686B1C08D00A246C43C24B1C19277ACE
:10265000002F2ED0012F32D0BF4EC04F3378C04C48
:10266000002B12D03B68BF4D002B07D12888FFF705
:102670008FFD2B885B002B800A233B600022AB5E22
:10268000002B42DA00232B8033703A68002A00D0F6
:10269000D2E01E23A18E3B60B34B1D78002D00D1EC
:1026A000EAE01A70012900D09EE0B048FFF770FD03
:1026B000BEE0012328002372FFF720FDCCE7202194
:1026C000AB4804F0CBF8002816D00022A388628023
:1026D00001339BB2A380092B00D9E2800A235D431A
:1026E0009C4B0C215D1900232B723368581CFDF79D
:1026F000B5FE08003160DFE76388A08001339BB23C
:102700006380092BEAD9E780E8E73378002BBCD057
:10271000802190200901C00504F0A0F801000020EC
:10272000FFF740FD802190204901C00504F096F894
:1027300001000120FFF736FD8E4D286800281CD1CE
:102740001E238D498D4E0A8808805A4392B23280EA
:102750004F8848807B43FA2789499BB27380088859
:1027600004267F00BB4203D30300B343BA4201D225
:10277000330003430B8064232B60FFF7B9FC814DCA
:1027800003002A88824216D028802320192B06D9DC
:102790000A33181C9BB2642B00D9642080B200213C
:1027A000FFF7DAFD7649288802220B884F2800D8E7
:1027B0007CE013430B80744B208A744E1978744D5F
:1027C0003080002974D06423E28F724C5343724AE4
:1027D00020001360FFF7D0FB3388984200D28CE0D2
:1027E0001819FFF70BFD88E0902001224021C00559
:1027F00004F03AF880225B4D52010023E95E624BFF
:102800000A431B782A80002B03D0C0239B010B4373
:102810002B805B4B1B88002B0AD0902001222021AB
:10282000C00504F021F880232A88DB0113432B80A4
:102830003378002B00D06BE7A38E012B00D167E724
:1028400000220126474D4349288833009340CF8812
:102850001BB200B2012F27D11843013280B20A31D6
:102860000C2AF2D14D4B28801A88824200D14FE7C2
:102870001880FFF78DFC4BE701221A70914201D1BD
:10288000280013E79020374A45491388C0050B40BC
:10289000138040212A0003F0E7FF90202A00202126
:1028A000C00503F0E1FFC3E79843D6E7934381E710
:1028B000A68F012E00D07DE0374B1B68002B1CD16A
:1028C0002A000B000434E48F37009F40380020407A
:1028D000274202D1310050711671013308320C2B9E
:1028E000F2D1002905D001222E4B1A702E4B6332F3
:1028F0001A609623284A5B0013602C4C2368002B37
:1029000017D12A0013491088002801D001381080FF
:102910005088002801D0013850800888002801D054
:1029200001380880013308320A310C2BEBD10B3B04
:1029300023601F4B1C68E700EE19B079042800D90A
:102940001FE1FDF711FC3A008F00AC0001011101FD
:1029500000000020600E00209C110020E00E0020EE
:10296000341200209E1100209D110020FF7F0000E6
:102970000008004830110020281100202C110020F0
:10298000D4110020D2110020B7020020240F002013
:102990003C110020260F0020DC0E0020D611002064
:1029A000FF8FFFFFA0110020D80E0020341100205F
:1029B00038110020784BC01813E7EE193379012B3A
:1029C0002ED11021754A135D8B43135500233371AB
:1029D000737921000193012B0BD1714801F09EFC0A
:1029E00020000199FFF7F0FD6423EB53019BB371C5
:1029F00006E06C4801F092FC00212000FFF7E4FDA6
:102A0000694C2368002B0AD1684B0C211B68581CA9
:102A10000193FDF723FD654B19600A232360F7BD81
:102A20007388002BECD15D4D285D0307E8D50A21A2
:102A300061435F4A5218D388002B0BD10300032255
:102A400093432B5518222B5D93431A0010231343F5
:102A50002B55D5E702230343210056482B5501F09F
:102A60005DFCEFE7EB5B002BCAD12100524801F07F
:102A700055FC01212000FFF7C7FD0222EB199A71D6
:102A8000C82292005A80FA23142244495B00EB5377
:102A90000B5D93431A00042313430B55B0E7EE1963
:102AA0003379012B1DD110223C4B1B5D93433B4AD4
:102AB00013550023337173790193002BA0D12100AA
:102AC0003E4801F02BFC1022344B20001B5D019985
:102AD0009343324A1355FFF797FD6423EB53613B51
:102AE00085E77388002B1FD12C4E305D4207D30F32
:102AF000002A19DA0A2161432D4A5218D288012A84
:102B00000BD103000232934333551422335D9343B8
:102B10001A0010231343335572E70343210028485A
:102B2000335501F0FBFBF0E7EB5B002B00D067E7D0
:102B300001212000FFF748FD01212000FFF764FD7F
:102B4000FA235B00EB535BE7EE5B002E00D057E708
:102B50002100144801F0E2FB31002000FFF734FDB2
:102B60000423ED19AB714BE70023ED19AB71C823BA
:102B700018220A499B006B800B5D93431A000823BF
:102B80008AE700212000FFF73FFD00212000FFF72A
:102B90001BFD00232BE7C046260F0020A8110020B4
:102BA00034B9000841B90008A411002038110020F0
:102BB000600E00204FB9000862B900086FB9000824
:102BC0007DB90008014B18887047C046D01100201D
:102BD000002301210C4A494213700C4A11600C4A2F
:102BE0000C4911600C4A13600C4A13600C4A1370B4
:102BF0000C4A13700C4A13600C4A13700C4A136091
:102C00000C4A13707047C046ED110020E0110020FF
:102C1000FC110020B80B0000F4110020DC11002092
:102C2000E4110020E5110020E8110020D811002057
:102C3000F8110020EC110020F0B5AD4B8FB01A78E0
:102C4000002A10D1AB4A1278002A0CD00124AA4ADB
:102C5000AA4D14701C70AA4A2B781470002B01D155
:102C600000F0C0FD2C70A74A00231400517B0029FE
:102C700041D0916801293ED100211A01A218A24831
:102C80005173A24A9D4D1060A14A1370A14A13606E
:102C9000A14B19602B788B4201D100F0A3FD0123D9
:102CA0002B709C490A68531C0FD01301E3189868D5
:102CB0001B7B002B24D0012822D1974B1968322985
:102CC00003D993490A7000221A608D4C207801388C
:102CD0000E2848D8FDF748FA1A006600AF00360102
:102CE0009301C101560286023C037503DC030A040A
:102CF0006904C504FD0401331032042BB6D1D0E7BA
:102D00000028E2D101235B420B60DEE7FFF7F0F918
:102D1000824B06001A88784F824217D0188000250F
:102D20002822290004A83D7007F029F932007C49C7
:102D300004A807F04BFA290028007A4A00F040FE68
:102D40000121280004AA00F03BFE02E03B78002BA2
:102D5000E5D16F4B1A78032A03D1013A2270013A68
:102D60003A70FF221A70694D2B68002B18D1237816
:102D7000012B07D00123604A2370137000F0DAFDA5
:102D800000F0F4FD5D4C2378002B01D000F020FD15
:102D9000012000215C4B404221702B60FFF788FA34
:102DA0000FB0F0BD544E3378002B2AD000275E4D73
:102DB000112239002800377007F0E1F820232B702A
:102DC0001E336B70594B39000433DA8F01202B000E
:102DD00007008F40174220D0312701319F70013307
:102DE0000C29F5D10021524B08001A80514A00F0FD
:102DF000E7FD2A000121002000F0E2FD00224E4BF9
:102E00001A60434B1B78022B09D0032B0BD0002BED
:102E100001D1032323703E4BA3E73027DDE70123D5
:102E20002370337004E0042301222370324B1A70A4
:102E30000022424B7CE1414F3B78002B0AD101211B
:102E400002203D4B3970186000F0F4FC00F080FD6A
:102E500000F09AFD2E4B1D78012D1ED03ED9023D6B
:102E6000012DD8D8344E304D3368EA5C981E302A94
:102E70000FD101210132EA54FFF71AFA3368012118
:102E80001800EA5C00F0B5FD0121306800F0D2FCCA
:102E9000C1E730220021EA54EEE700F04BFD00F0DC
:102EA00065FD0223002601202370134B31004042B0
:102EB0001D703E70FFF7FCF91C4B0433DA8F1C4B7E
:102EC0001B889A42A7D031001D4A300001F056F904
:102ED00032003100032000F0C9FE9CE7164B1A684F
:102EE000511C0D2A00D15DE3196001211868CDE75E
:102EF000ED110020D0130020E4110020D811002093
:102F0000F0110020E40E0020B80B0000FC1100209E
:102F100008000020E0110020DC1100201C1200201D
:102F200092B90008A3B90008001200203412002052
:102F3000EE110020B4B90008E8110020E5110020CE
:102F4000BFB9000802A8FFF7FFF96B461F89C54B00
:102F5000C54E1A88BA4202D001221F8032706A46DA
:102F600059885289914229D05A80002104AD2822E3
:102F70002800317007F003F8FA235B009F4229D242
:102F80002800BA4907F050F920236B726B465A8922
:102F9000FA235B009A4223D2DB3BFF3B6B441800D1
:102FA000B34907F041F90021B24A080000F008FDDA
:102FB0002A000121002000F003FD02E03378002BFD
:102FC000D3D1AD4A1378022B12D0032B0FD0FF239D
:102FD0001370C8E63A002800A84907F0F7F8D3E7CD
:102FE0001A236B441800A64907F0F0F8DBE7052325
:102FF0002370012300213370A24B1970E7E79A4E2A
:103000003378002B19D000259F4F1122290038005A
:10301000357006F0B4FF9D4B9D491A8A380007F0C1
:10302000D5F8290028009B4A00F0CAFC3A0001218B
:10303000280000F0C5FC984B1D608F4B1B78022BBD
:1030400000D1F0E6032B04D0002B00D0E3E60623EA
:10305000E0E607232370063BE3E68A4F3B78002B2C
:103060000AD1012102208C4B3970186000F0E2FB7C
:1030700000F06EFC00F088FC7F4B1878032846D8DF
:10308000FDF75EF8742B0211834D7F4A2868135CAC
:103090000133DBB21354392B12D9312304280ED05B
:1030A000302313540CE07C4D774A2868135C013BB5
:1030B000DBB2135404280CD1302B01D839231371FF
:1030C0000121125C00F095FC0121286800F0B2FBA0
:1030D0001DE02F2BF4D83923E3E700256A4845711A
:1030E000023006F011FF802306009B00984221DD8C
:1030F0006A4A0121280000F063FC01210F2000F042
:1031000099FB0123664A1370C822664B1A60644B10
:103110001B78002B00D17EE6624B1B68002B00D091
:1031200079E65F4A3B7013700533012223704E4BE2
:103130001A7070E600F0FEFB00F018FC05235349FE
:1031400023703D70088A0122474B864201D11A70D4
:10315000DDE728000E821A702900534A01F00EF8AC
:103160002A002900032000F081FDD0E74A4B1A68AD
:10317000511C042A03D0196001211868A6E7022215
:103180001A60F9E7384E3378002B1AD000253E4FED
:10319000112229003800357006F0F1FE3B4B3C4906
:1031A0000233DA8F380007F011F8290028003F4A6F
:1031B00000F006FC3A000121280000F001FC364B2B
:1031C0001D602D4B1B78022B06D0032B08D0002B43
:1031D00000D020E608231DE605232370043B20E6EB
:1031E000092321E6274F3B78002B0AD10121022039
:1031F000294B3970186000F01DFB00F0A9FB00F0AE
:10320000C3FB1D4B187803286AD8FCF799FF95512A
:103210000211214D1C4A2868135C0133DBB21354A0
:10322000392B12D9312304280ED0302313540CE04B
:10323000194D154A2868135C013BDBB2135404286E
:103240000CD1302B01D8392313710121125C00F00D
:10325000D0FB0121286800F0EDFA41E02F2BF4D8D3
:103260003923E3E718120020E4110020C9B900084F
:10327000CEB90008DCB9000808000020D3B9000866
:10328000D8B90008E51100200012002034120020F7
:10329000EBB90008F2B90008E8110020FFB90008F6
:1032A000EC110020F4110020BFB900080FBA00088B
:1032B0000025D3484571023006F026FE0600FF289F
:1032C0001DDDD04A0121280000F07AFB01210F20EA
:1032D00000F0B0FA0123CC4A1370C822CB4B1A601D
:1032E000C94B1B78002B00D195E5C84B1B68002B00
:1032F00000D090E5C44A3B701370073315E700F027
:1033000019FB00F033FB07232370C14B3D700233E0
:10331000D88F0121BF4A864201D11170E0E7280011
:1033200011702900BC4ADE8700F028FF2A0029001E
:10333000032000F09BFCD3E7B84B1A68511C042A09
:1033400003D019600121186885E702221A60F9E7A5
:10335000B34BB04E0293B34B02AF03933378002BC1
:103360001DD000252822290004A8357006F007FE8C
:10337000A74BAD499B8F04A89B00DA5906F026FFA6
:1033800004A8FCF7CBFEA54B2900A84A186028002A
:1033900000F016FB0121280004AA00F011FBA44A4A
:1033A0001378022B07D0032B07D0002B00D00EE69A
:1033B0000A2323700BE607231AE60B2323700A3B2C
:1033C00018E6974B9B4E0293964B02AF7B60337887
:1033D000002B0DD101218E4B9A8F974B31701A60C3
:1033E0008E4B186800F026FA00F0B2FA00F0CCFA22
:1033F0008F4B1D78012D25D0023D012D32D88E4BEB
:1034000000211A6804A85542554128221D60AD00CC
:1034100006F0B5FD7A59844904A806F0D7FE834A20
:103420000021080000F0CCFA012104AA002000F0DD
:10343000C7FA04A8FCF772FE784B0121186000F06F
:10344000F9F90FE000F076FA00F090FA00233370FB
:10345000093323706E4A784B918F1B686D4E9942E9
:1034600003D13570FF23724AB2E59BB29387012BDB
:1034700001D1FEF7FDFE002101230800664A3370EA
:1034800000F07CFE00220320110000F0EFFBE9E7D2
:10349000604E3378002B19D00025594F1122290096
:1034A0003800357006F06BFD594B6449DA8F3800EF
:1034B00006F08CFE29002800614A00F081FA3A00EB
:1034C0000121280000F07CFA544B1D60584B1B78FA
:1034D000022B00D184E6032B04D0002B00D09AE409
:1034E0000C2397E40D2323700C3B9AE4514D2B7869
:1034F000002B0AD101210220484B2970186000F0EE
:1035000099F900F025FA00F03FFA494B18780328A2
:1035100000D980E4FCF714FE401E02143F4D384AE7
:103520002868135C0133DBB2392B07D8135401210F
:10353000125C00F05EFA01212868A7E43023F5E769
:10354000364D2F4A2868135C013BDBB22F2BEDD898
:103550003923EBE700F0EEF900F008FA00230B2224
:1035600027482B70C3710230227006F0CDFC354B1A
:10357000984200DD180026490122CD8F254BA84234
:1035800000D1D5E5C88700211A700800224A00F052
:10359000F5FD002211009DE4204B1A68511C062AFB
:1035A00000D0A1E402221A609FE41A4E3378002B67
:1035B0001AD000252822290004A80127357006F01A
:1035C000DEFC02233A002049009301972B0004A857
:1035D00006F0FCFD290028001C4A00F0F1F9390032
:1035E000280004AA00F0ECF9114B1A78022A2FD017
:1035F000032A01D0FFF7B5FB0E2222700D3A2AE014
:1036000000120020FFB90008EC110020F411002086
:1036100034120020E4110020BFB90008E811002096
:103620007CAB000887AB00081DBA000822BA00086E
:1036300008000020E51100201412002031BA000813
:1036400038BA0008E8FD000048BA000856BA000879
:103650000B2222700A3A32700021404A1170FFF7A3
:1036600080FB3F4D2B78002B22D00021282204A87C
:10367000297006F084FC3B4B3B491B68002B00D0B3
:103680003A4904A806F0D0FD04A8FCF747FD384BE2
:103690000121186004AA002000F092F90021354AA7
:1036A000080000F08DF90121002004AA00F088F93B
:1036B000314B1A78002A08D0022A01D0FFF751FBBB
:1036C0000B3222700C3A2A70C6E70F222270FFF7E5
:1036D00048FB2A4B214F0293294B02AD6B603B788C
:1036E000002B09D10121224B3970186800F0A2F893
:1036F00000F02EF900F048F91F4B1E78012E15D06E
:10370000023E012E00D9ADE6164B00211A6804A82E
:103710005642564128221E60B60006F030FCAA59D7
:10372000184904A806F052FD124A79E600F002F9A1
:1037300000F01CF90E2300252370094B3D701E700C
:10374000084B1B68012B00D08CE6290028000E4A8C
:1037500000F014FD2A002900022096E6E511002061
:10376000E4110020F81100205FBA000865BA0008D3
:10377000E811002076BA00080800002061BA0008AD
:103780008FB900081DBA000886BA000807B5054AB7
:1037900001AB12780021104318700122272000F09D
:1037A000A9FC07BD1E12002070B504250400FFF718
:1037B000EDFF28002043FFF7E9FF012002F074FB32
:1037C0002000A843FFF7E2FF322002F06DFB70BD3E
:1037D000002010B5024B1870FFF7D8FF10BDC0468F
:1037E0001E120020082210B5024B00201A70FFF7AD
:1037F000CDFF10BD1E1200200F2310B5040098430A
:10380000FFF7D2FF2001C0B2FFF7CEFF10BD10B509
:103810000120FFF7F1FFFA20C00002F045FB10BDC8
:1038200010B50220FFF7E8FFFA20C00002F03CFBD1
:1038300010BD0000F0B585B06A46040010000A4BC8
:10384000E0CBE0C01B680360084B1B688B4200DACA
:10385000591E890050580419802040422043C0B2AC
:10386000FFF7CAFF05B0F0BD34AB000824120020FA
:1038700004230C2010B504490A78134310430B703D
:10388000FFF7BAFF10BDC0461F120020002370B51D
:103890001E4D1F4C2B70012935DC23701D4B32202F
:1038A000196002F099FB2878FFF770FF642002F09E
:1038B00093FB3020FFF778FF174802F0F5FA30202D
:1038C000FFF772FF144802F0EFFA3020FFF76CFFA9
:1038D000962002F0E9FA2020FFF766FF20202378E7
:1038E0001843FFF789FF04220C4B1A70FFF7C0FF43
:1038F000FFF78DFF02220A4B06201A70FFF77CFFAC
:10390000FFF78EFF70BD0823C7E7C0461E120020D8
:103910002012002024120020941100001F12002009
:103920002112002010B500F0E1FB02211020FFF76A
:10393000ADFF10BD022210B5044B187890431870EB
:1039400008231843FFF758FF10BDC0461F12002080
:1039500002230A2010B504490A78134310430B7060
:10396000FFF74AFF10BDC0461F120020012210B50C
:10397000044B18789043187008231843FFF73CFF56
:1039800010BDC0461F1200200123092010B50449B4
:103990000A78134310430B70FFF72EFF10BDC0468B
:1039A0001F1200200F2370B5012405009843204307
:1039B000FFF7FAFE28012043C0B2FFF7F5FE70BD05
:1039C000F8B51600FFF736FF3000FCF7A7FB00251F
:1039D00004000700A54202DB0F2F05DDF8BD705D76
:1039E000FFF7E0FF0135F5E72020FFF7DBFF0137A8
:1039F000F2E710B51400FFF71DFF2000FFF7D2FF1C
:103A000010BD00000023F0B5734A744C1370744A63
:103A100085B01370237000F093FB01227149724846
:103A200005F0C8F8714800F0E5FB714D280000F082
:103A3000E1FB704A7049714800F0DCFB704800F00F
:103A4000D9FB03F077FA6F49FCF798FB01006E4849
:103A500000F0D0FB03F074FA6A49FCF78FFB010019
:103A60006A4800F0C7FB6A4800F0C4FB694800F0F0
:103A7000C1FB280000F0BEFB8021012249016648FD
:103A800002F0F2FE01F094F8644803F027FFFDF71E
:103A90003DFB634A634B12689A4207D00120FDF751
:103AA00053FB614802F000FAFDF730FB0026FDF7FA
:103AB000C5FCFEF775FCFEF791FAFDF7B7FFFEF7C0
:103AC0008DF85A4D28006E6002F0E0FE00F0EAF832
:103AD000574803F031FF574803F02EFF3100564896
:103AE00004F064FA0122554B55481A7000F082FB2D
:103AF000FDF7BCFCFEF7A2FDFEF798FA00F034FCDF
:103B0000FEF78CF84F4B0022186801A905F072FAF5
:103B100001280AD1019B022B4CD0032B51D0012B41
:103B200003D10A222370484B1A60484B1B78002BA4
:103B300009D0474F3E68002E05D1FDF76FFC454B7D
:103B40003B60424B1E70264B1A78434B002A02D131
:103B50001A78002A05D0002221491A700A70FDF750
:103B6000E9FA3E4B1A78002A06D000221A70364B2A
:103B70000A321A60012323702378002B24D0324BA1
:103B80001E68002E20D13648267000F0C7FB124B6D
:103B90001B78002B05D03000FDF7D6FA0A2002F082
:103BA0001BFABFF34F8F2F4B2F4ADA60BFF34F8FB3
:103BB000C046FDE7FA22084B20701870D200224B55
:103BC000B2E7074B1870B0E7280002F091FE012021
:103BD00005F04FF88CE7C046281200203012002074
:103BE00031120020F81200205416002081AD000888
:103BF0009ABA0008AEAB000890AB0008D9BA00082A
:103C0000E4BA000840420F00FDBA00080FBB0008EC
:103C100021BB000841BB0008000800487C150020BB
:103C20003412002044746680102700001414002011
:103C3000EC1400200C16002034150020D0130020B6
:103C4000BDB20008681700202C120020A01100202F
:103C5000D80E0020999919007617002075170020BA
:103C60006CAD000800ED00E00400FA051FB500236C
:103C7000019005480291039201A91A00006805F01D
:103C800029F905B000BDC0466817002010B5FFF740
:103C900049FEFEF79DFFFEF7CFFF022004F0E9FF8B
:103CA000F9E700000023024A1360024A13607047DC
:103CB000781200207C120020174B1B78002B06D0B6
:103CC000164B1A68002A02D01A68013A1A60144B7F
:103CD0001A68002A02D01A68013A1A60114B1A6851
:103CE000002A02D01A68013A1A600F4B1A68002A9B
:103CF00002D01A68013A1A600C4B1A68002A02D0E6
:103D00001A68013A1A600A4B1A68002A02D01A6827
:103D1000013A1A607047C046301200202C12002071
:103D2000C8080020FC090020A41100203411002044
:103D30005C0E002010B50001144C002910D00021A9
:103D400023185A68215001325A60092A07DD9A68FF
:103D5000012A00D15A73002320188360037310BD19
:103D6000235822180133235051604F2B0BDD0123C0
:103D7000137323189A68002A01D101325A73012360
:103D800020188360EBE7092BE9DDF2E7E40E002061
:103D90002F4B10B51A68002A02D01A68013A1A602F
:103DA0002C4B1A68002A02D01A68013A1A602A4B72
:103DB0001A68002A02D01A68013A1A60274B1A685A
:103DC000002A02D01A68013A1A60254B1A68002AA4
:103DD00002D01A68013A1A60224B1A68002A02D0EF
:103DE0001A68013A1A60204B1A6801321A601A6880
:103DF000632A0BDD00211D4A196013681C4801333A
:103E000013601C4A13889BB20380118001211A4859
:103E100002F024FD01000020FFF78CFF022116486C
:103E200002F01CFD01000120FFF784FF042112486D
:103E300002F014FD01000220FFF77CFF08210E486C
:103E400002F00CFD01000320FFF774FF10BDC04617
:103E5000E00E002030110020DC0E0020D80E0020E3
:103E6000FC110020F4110020781200207C120020A8
:103E7000B4020020B8020020000800480368064A87
:103E800010B5934202D100F0BBFA10BD034A934231
:103E9000FBD1FDF7B9FCF8E70038014000440040D1
:103EA0000368064A10B5934202D100F0ABFA10BD88
:103EB000034A9342FBD1FDF70FFCF8E700380140BD
:103EC000004400400368064A10B5934202D100F056
:103ED000D1FA10BD034A9342FBD1FDF7ADFCF8E7E0
:103EE0000038014000440040802110B5064C0122FA
:103EF0002000890002F0B8FC0122802120009140BE
:103F000002F0B2FC10BDC046000400487FB510228C
:103F1000002102A806F033F801230393023304932F
:103F2000FE33FF33034801A9019302F0D3FB07B02E
:103F300000BDC046000400487FB50C22002103A844
:103F400006F01DF80123029302330493FE33FF337E
:103F5000034801A9019302F0BDFB07B000BDC046B4
:103F600000040048020010B5002800D00122802182
:103F70000248890002F078FC10BDC04600040048E9
:103F80001923002B00D17047013BFAE770B580255B
:103F90000B4CAD0029002000002202F065FC01223C
:103FA00080212000914002F05FFCFFF7E9FF29002B
:103FB0000122200002F058FCFFF7E2FF70BDC0466E
:103FC0000004004870B58025074C6D0029002000D2
:103FD000012202F049FCFFF7D3FF29000022200054
:103FE00002F042FC70BDC0460004004870B50400F9
:103FF000002901D001231C438021002208484900E8
:1040000002F032FC072501263000A8402040FFF7CF
:10401000A9FFFFF7B5FFFFF7D5FF013DF4D270BD53
:1040200000040048802170B50022050049000848BE
:1040300002F01AFC072401263000A0402840FFF7B8
:1040400091FFFFF79DFFFFF7BDFF013CF4D270BD6C
:104050000004004870B5802680250F4CB600310062
:104060006D002000012202F0FFFB29002000012248
:1040700002F0FAFBFFF784FF31002000002202F07B
:10408000F3FBFFF77DFF29000022200002F0ECFB8C
:10409000FFF776FF70BDC0460004004870B5FFF71B
:1040A00035FF8021012210484900802502F0DCFB09
:1040B0000F24FFF765FFAD0029000B4802F0CEFB8F
:1040C00000280ED0013C002CF6D1802100220648A9
:1040D000490002F0C9FBFFF72FFFFFF751FF200057
:1040E00070BD0124F1E7C0460004004810B5FFF799
:1040F000FBFE10BDF8B504001E001500FFF7AAFF77
:1041000060000021C0B2FFF771FFFFF7C7FF431E39
:1041100098410027C4B2BD4205DCFFF731FFFFF72D
:1041200035FF2000F8BDFFF72BFFF05DFFF77AFFAA
:10413000FFF7B4FF431E9841404204400137EAE7CD
:10414000084B094A0949DA609A60094A1A605A60BC
:104150001A8A1140074A0A431A820022064B1A6043
:104160007047C0468012002000130020FCFCFFFFB7
:104170009412002002020000C81300200CB4F0B515
:10418000AFB034AC80CC06000D006422002115A82D
:1041900005F0F5FE5022002101A805F0F0FE2200F6
:1041A000390015A8009406F0F7F86B4615A94D22C2
:1041B000981D1E715D7105F0D9FE002305481A0097
:1041C00001A9006804F086FE2FB0F0BC08BC02B064
:1041D0001847C0466C17002010B50400FBF79EFF7F
:1041E000642382B22100024804F085FB10BDC04662
:1041F000541600200FB430B59BB01EAC20CC642206
:10420000002101A805F0BBFE2200290001A80094AE
:1042100006F0C2F801A8FFF7DFFF1BB030BC08BCF6
:1042200004B01847014B18607047C046C8130020FF
:10423000014B18687047C046C8130020024B187C19
:104240008007C00F7047C046801200200C4910B58F
:104250000C000C4B64345A6810780132A2420DD025
:104260005A605A6819688A4203D10222197C0A43AB
:104270001A7401211A7C8A431A7410BD5960F0E740
:1042800094120020801200200B4B0C499A68107089
:1042900001328A420DD002219A605A7C8A435A74B4
:1042A0009968DA688A4203D10122597C0A435A7418
:1042B0007047034AEFE7C04680120020C813002071
:1042C00000130020F7B50400FBF728FF26000127A4
:1042D00080B203190193019B0C4D9E420BD1012228
:1042E00021000B4803F012FFEB680A4A01339342A6
:1042F00009D0EB60F7BD6B7C3B42F0D13078FFF723
:10430000C3FF0136E7E7044BF3E7C0468012002005
:1043100054160020C8130020001300200FB430B53D
:104320009BB01EAC20CC6422002101A805F027FE22
:104330002200290001A8009406F02EF801A8FFF73A
:10434000C1FF084C200004F05DF92128F9D02000BD
:1043500004F058F92328F4D01BB030BC08BC04B0DA
:104360001847C0465416002070B51A4B94B000226E
:104370006946186804F03EFE012829D16B461A7878
:10438000154B1B689A4223DC6B465B78002B1AD0D6
:10439000124B3C211E6818681C68FBF775FF200053
:1043A0000D003C21FBF7EAFE3C21FBF76DFF0C0002
:1043B000E12130000901FBF7E1FE2B0001002200A2
:1043C0000748FFF7ABFF6B460648991CFFF7A6FFAF
:1043D00014B070BD6C170020C81300207C120020A0
:1043E00080BB00081FBA000807B56B46D91D0870CE
:1043F00064230122014804F07EFA07BD5416002010
:104400007047000037B5164B02689A4224D1154C0C
:10441000637C9B0720D4144D280004F0F3F8212876
:1044200000D1FEE76946E36807311A7801330A7064
:104430000E4A934211D00122E360637C934363747C
:10444000A268E368934203D10223627C134363743E
:104450000122280003F05AFE37BD054BEBE7C046AA
:10446000003801408012002054160020C81300209C
:1044700000130020114B026810B59A421BD1104B5B
:1044800010491A68087810700F480132040064342B
:10449000A24211D01A6002201A7C82431A74586812
:1044A0001A68824203D10122187C02431A74012245
:1044B000064804F07FFB10BD1860ECE700380140AF
:1044C00080120020F81200209412002054160020C0
:1044D00010B5FFF797FA012004F0CBFBFBE70000D3
:1044E00010B5074B1B78002B05D0FFF7CFFB012041
:1044F00004F0BFFBFBE7012004F0BBFBF1E7C04683
:10450000D013002030B599B02C2200210DA805F061
:1045100036FD10220021684605F031FD1C220021E5
:1045200004A805F02CFD09230B9380235B0215934F
:104530008023012402251B030BA80C9412941495CC
:10454000169302F0DDF9002801D072B6FEE70723CA
:1045500002900390210068460093019502F060FCF0
:10456000002801D072B6FEE703230690079004A846
:10457000049302F011FD002801D072B6FEE719B0D5
:1045800030BD0000F0B595B001F004FDFFF7BAFFB3
:10459000142200210DA805F0F2FC8020D34BC003AB
:1045A00059690024014359615A690125024080205C
:1045B0000192019A59690003014359615A6903261E
:1045C000024080200292029A596980020143596197
:1045D0005A691127024080200392039A5969C00248
:1045E0000143596180215A69490302409020049295
:1045F000049A5A69C0050A435A615B6900220B405C
:104600000593E221059B02F02FF90022B849B94831
:1046100002F02AF99C210122B748490102F024F94D
:10462000E02190200122C900C00502F01DF90122FD
:104630000421B24802F018F9C0210122AD488900D6
:1046400002F012F90F23AC480DA90D930E940F95AB
:1046500002F040F89020AA4B0DA9C0050D930E95CD
:104660000F94109602F036F8902080230DA9C00513
:104670000D930E950F94109402F02CF820239E4871
:104680000DA90D930E940F9402F024F89D4B9948B8
:104690000DA90D930E950F94109602F01BF8E023D0
:1046A00095489B000DA90D930E950F94109602F05E
:1046B00011F8C0235B010D93902084230DA99B0367
:1046C000C0050E930F9402F005F880238A485B0121
:1046D0000DA90D930E970F94109601F0FBFF042384
:1046E00086480DA90D930E970F94109601F0F2FFD6
:1046F00022003100072001F075FF072001F09CFF28
:104700008148824B036005234360814BC360836013
:1047100002F0BCF80300A04201D072B6FEE77D486B
:104720007D4A82240260E0228026D2008360C2603B
:1047300003610722436103624362836203631827B4
:1047400008236400B600436344608661C761C262A7
:1047500002F0B0FD031E01D072B6FEE76F48704A4A
:1047600086610260E022D200C2600722446083605A
:1047700003614561C761036243628362C26203638E
:10478000436302F097FD061E01D072B6FEE72F27A5
:10479000010010220DA806AC05F0F1FB0822310043
:1047A000200005F0ECFB5F4D5F4B28002B605F4B5A
:1047B0006F60AE60EB602E616E61AE6103F0E4F994
:1047C000002801D072B6FEE7802328005B010DA906
:1047D0000D9303F0D3FA002801D072B6FEE72060F3
:1047E00060602100280003F0E5FB051E01D072B6D1
:1047F000FEE7010010220DA805F0C1FB08222900E8
:10480000200005F0BCFB8023494EDB05336001230B
:1048100030005B427760B560F3603561B56103F0ED
:10482000B3F9002801D072B6FEE7802330005B01A7
:104830000DA90D9303F0A2FA002801D072B6FEE78D
:10484000206060602100300003F0B4FB031E01D043
:1048500072B6FEE73748384A83600260374AC36061
:1048600042600C22036142618361C361036243625F
:1048700004F00AF9002801D072B6FEE78022304821
:10488000304B92010360304BC26043600C22002326
:104890004261836003618361C3610362436204F028
:1048A000F3F8071E01D072B6FEE7082601003200B9
:1048B0000DA805F064FB254D254B28002B602F2308
:1048C0006B60244BAF60EB60AF6103F05DF90028D3
:1048D00001D072B6FEE70D900E900DA9280003F0EE
:1048E00069FB071E38D072B6FEE7C04600100240D2
:1048F000070400000004004800080048000C0048BD
:104900006207000007070000141400200030004078
:10491000FF0F000024140020003001408814002004
:1049200000380040EC140020002C0140E703000098
:104930007C150020541600200038014020A10700FB
:10494000DC1600200044004090D003000C1600202C
:10495000001400400F270000010010220DA805F0F0
:104960000EFB32003900200005F009FB5B4D5C4B6B
:1049700028002B602F236B60F423FF33EB60743B24
:10498000FF3BAF602F61AB6103F0FEF8002801D060
:1049900072B6FEE7802328005B010DA90D9303F09A
:1049A000EDF9002801D072B6FEE7206060602100BA
:1049B000280003F0FFFA071E01D072B6FEE70100DF
:1049C0001C220DA805F0DBFA464D474B28002B6052
:1049D00003236B602C23FF33EB60AB3BAF602F6195
:1049E000AB6103F0D1F8002801D072B6FEE72800D1
:1049F00003F0F2F8021E01D072B6FEE760230F90BA
:104A00000D931190363328000DA90E9303F04CF945
:104A1000071E01D072B6FEE7280001F021F90C2232
:104A200039000DA805F0ABFA0422304D304B6A6115
:104A30002B6080232F4A1B06AA61C2226B600123D0
:104A4000FF32EA6128006A1DAE60EF602B612F62C1
:104A5000D777AB6201F08EFB002801D072B6FEE77B
:104A600000230D9380230DAE5B01736006232800A5
:104A70003100B36001F0D8FC051E01D072B6FEE72C
:104A8000020050210A2004F002FA1B4B0C2118608E
:104A90002A000A2004F0FBF9184B194A1860230079
:104AA00083CA83C383CA83C3126829001A602000A3
:104AB00004F0B4F83200134B114F18601C370BCFC1
:104AC0000BC20BCF0BC23B6829001360300004F00F
:104AD000A5F80D4B186004F09CF8FEE7C415002003
:104AE000000400403415002000200040D4130020B2
:104AF00000240140010000016C170020681700200D
:104B000044AB0008CC13002064170020034B02685C
:104B100010B59A4201D101F04DFA10BD00100040CD
:104B20008023F0B50026C5B00191070000220121C5
:104B300001245B0004A8FBF7DBFD3500644204ABF5
:104B4000E9005918082202A805F010FA002302AA69
:104B5000D25CFF2A17D10133082BF8D10135202D63
:104B6000EDD10020631C0CD004ABE10008225918E1
:104B70003E6002A805F0FAF9012002AB9B88019A79
:104B8000138045B0F0BD0022130002A9515C013230
:104B90005B18062AF9D102AAD2889BB29A42DDD1CB
:104BA000029B621C01D0B342D8D92C001E00D5E76D
:104BB00010B5FBF70BFD10BD10B5FFF7B1FF10BD31
:104BC000F0B5C5B002AB9F1C05000E0003A839006C
:104BD000FFF7A6FF041E15D003981521FBF754FB21
:104BE0000C234B4301938023002239885B0004A8E7
:104BF000FBF77EFD04AB9C4601993200280061441E
:104C000005F0B4F9200045B0F0BD10B5FBF7F4FC99
:104C1000642001F049F910BD70B5160005000C00C4
:104C20000800FBF7E9FC642001F03EF9320028009F
:104C30002100FBF7FDFC70BD10B5FBF7F9FC10BDC2
:104C40000023F0B502265C4CA544039302AB009010
:104C5000019103A899195E80FFF762FF051E62D1DA
:104C6000020031005548FFF759FB3000FFF7CDFF38
:104C700034002F00802300225B00210008A8FBF7EE
:104C800037FD8022FF21520008A805F078F908AB13
:104C90005819019A009905F069F980222100520003
:104CA00008A8FFF7C9FF8023002201215B0048A864
:104CB000FBF71EFD002548ABEE009E1908223100CF
:104CC00004A805F053F90023082102AA5218D25C67
:104CD000FF2A44D101338B42F6D1162302AA9B1836
:104CE000012252421A80BFB202AB06979C82002377
:104CF0001A00102002A90918C95C01335218062BAA
:104D0000F7D102ABDA8206A90822300005F02EF9AD
:104D100080220121520048A8FFF78EFF012089233D
:104D20009B009D44F0BD039B15215F1C3800FBF7E1
:104D3000ABFA02AB5C8800290ED10134A4B2192C65
:104D400000D934003A0021001C48FFF7E7FA2000A0
:104D5000FFF75BFF00258DE70C254D438AE7013502
:104D6000202DA8D11648FFF745FA162302AA9B1852
:104D7000012252421A80BFB202AB06979C820023E6
:104D80001A00102002A90918C95C01335218062B19
:104D9000F7D102ABDA82FF21F8224AA805F0EFF83A
:104DA00006A9082248A805F0E1F880220121520056
:104DB00048A8FFF731FFB1E7DCFDFFFFA4BB000807
:104DC000BFBB000810B5FBF793FC10BD030010B586
:104DD000144A00795479117924020C435979090253
:104DE000014301208C4219D819D350781478917856
:104DF0000002D278044309042143120611435A7871
:104E00001C7898781202DB781443000420431B06B8
:104E100003430120994201D89942804110BD0120ED
:104E20004042FBE7D008002037B503004078012856
:104E300001D000203EBD6946DA784A711A790A71BC
:104E40005A79CA709A798A70DA794A701B7A0B702B
:104E5000009D6B1C5A425341104A1370104A8B88B4
:104E600051791479090221438B420ED16B1CE1D098
:104E70005378117894781B02D278194324040C4398
:104E8000120622439542D4D1D4E76A1CD1D1054AF7
:104E90009B185A425341D8B2CCE7C0467017002045
:104EA000D00800200100FFFFCB7D002B31D18022F4
:104EB000E02142760132C276013242770E32C27769
:104EC000421C0376837603778377D377821CD1776E
:104ED000C21CD3770131021DD177421DD377F02256
:104EE000831DDA770123C21DD377A039D218D17779
:104EF00020323A39117001395170D3700A310300F0
:104F00009170FF222C331A70203A5A701623C37501
:104F100070470222014B1A70FAE7C046731700204F
:104F200010B5CB7D040086B0022B3ED1087E4A7EB0
:104F300001AB58701A7019881D4B994231D1042366
:104F4000A3760333E376043B237700236276621C67
:104F50006377A377E3772076D377A21CD377E21C1D
:104F6000D377221DD377FF22611DCA77A11DCA778F
:104F7000E11DCA770131CA772200283213705370BD
:104F80009370D3700B490E2202A804F0EFFF2000AB
:104F90000E222C3002A904F0E9FF2223E37506B0AB
:104FA00010BD0722044B1A70F9E70222024BFAE700
:104FB000DFFF0000DFBB00087317002030B5CB7D9A
:104FC000002B27D101220325144C218A0276437637
:104FD0008576648A8518C47605240477043444777A
:104FE000073C8277C377EC770519EA77C51CEC7725
:104FF000041DE377441DE277841DE277C21D0C0A8D
:10500000D4770132D17720321370537093701333F9
:10501000C37530BD0222024B1A70FAE73412002029
:105020007317002030B50D0000218BB004001C2246
:1050300003A8029104F0A3FFEB7D0221002B13D102
:105040000122009101920A4902A805F0BFF802A8C6
:10505000FBF764F8050020002A00183002A904F0CC
:1050600085FFE5750BB030BD024B1970FAE7C046FD
:105070004ABA000873170020CB7D002B07D1064BDE
:105080001B8A1A0A437602230276C37570470222EE
:10509000024B1A70FAE7C046341200207317002042
:1050A000CB7D022B16D10A7E4B7E802112029B18EB
:1050B0009BB25A1E92B289008A4207D2074A1382D3
:1050C0000122074B1A700023C37570470722054B56
:1050D0001A70FAE70222034BFAE7C04634120020A6
:1050E0007617002073170020CB7D002B08D1064BCC
:1050F0009B8E013B5A42534103760123C37570478F
:105100000222024B1A70FAE73412002073170020B3
:10511000CB7D012B0BD10B7E012B04D8054A938646
:105120000023C37570470722034B1A70FAE7022267
:10513000014BFAE7341200207317002030B50D0040
:10514000002189B004001C2201A8009104F017FF7F
:10515000EB7D002B18D10E4B5B8A022B10D10D4931
:10516000684605F061F86846FAF7D8FF05002000A8
:105170002A006946183004F0F9FEE57509B030BD23
:105180000322054B1A70F9E70222034BFAE7C046E7
:1051900034120020EDBB00087317002030B50D005D
:1051A000002189B004001C2201A8009104F0E7FE50
:1051B000EB7D002B10D10A49684605F035F86846AA
:1051C000FAF7ACFF050020002A006946183004F009
:1051D000CDFEE57509B030BD0222024B1A70F9E729
:1051E000FFBB00087317002010B5CB7D002B0BD13F
:1051F0000100074C1831E25C002A03D0CA54013385
:10520000202BF8D1C37510BD0222024B1A70FAE7A9
:10521000481200207317002070B5CC7D202C1AD9BD
:105220000222114B1DE0CA5C1600203E5E2E06D8FD
:10523000EA5401339C42F6DC202B06D001E0002A20
:105240000DD10A4AD31800221A750122084B1A7090
:105250000023C37570BD0023064D1831EAE707220D
:10526000014B1A70F6E7C046731700203412002075
:105270007617002048120020CB7D002B07D1064B6B
:10528000DB8E5A1E934103760123C37570470222B9
:10529000024B1A70FAE7C046341200207317002040
:1052A000F0B587B00190CD7D002D1CD1012702AC57
:1052B000102220000E4904F059FE0E4E1022290043
:1052C0000D48378204F05BFE3300143307CC07C36C
:1052D00022681A60094B7563B363094B1F70019B09
:1052E000DD7507B0F0BD0222064B1A70F9E7C04623
:1052F0001EBC0008341200205812002001000100DA
:105300007617002073170020CB7D002B07D1064BAA
:105310001A8F02765B8F43760223C3757047022291
:10532000024B1A70FAE7C0463412002073170020AF
:10533000CB7D012B0DD10A7E012A06D1002306491F
:105340000B870649C3750A7070470722044B1A7011
:10535000FAE70222024BFAE7341200207617002007
:105360007317002070B500260D0088B004001C22C1
:10537000310001A8009604F002FEEB7D012B1CD148
:105380002B7E012B15D1237601330D4963766846B8
:10539000A67604F049FF6846FAF7C0FE0500200033
:1053A0002A0069461B30033504F0E0FDE57508B0BE
:1053B00070BD0722034B1A70F9E70222014BFAE78E
:1053C0002EBC000873170020CA7D012A13D10B7E62
:1053D000012B06D1094A13700023094A1370C375C3
:1053E0007047FF2B03D1054B1A700023F7E7072204
:1053F000044B1A70F4E70222024BFAE775170020FB
:10540000721700207317002010B5C97D002918D12C
:105410000E4CFF23A28F002A09D1027642768376B2
:10542000C3760377437782770723C37510BDE28F76
:105430000376140A43768476C276037743778177BE
:10544000F2E70222024B1A70F0E7C0463412002045
:1054500073170020CB7D30B5072B13D18D7E0B4CFD
:10546000FF2D08D10023CD760122A387084B1A70A7
:105470000023C37530BDCB7E1B022B435BBAE38791
:105480000123F1E70222034B1A70F3E734120020E4
:105490007617002073170020CB7D002B0DD1094B10
:1054A000DB681A0E02761A02120E4276C3761A04CE
:1054B0000423120E8276C37570470222024B1A70C3
:1054C000FAE7C0463412002073170020F0B5CA7DF9
:1054D00005000C008DB0202A70D1444904A804F0C6
:1054E00045FD220000231832102069460918C85CC7
:1054F000D15C884202D006223D4B26E00133072BC7
:10550000F2D123000833DB7F782BF4D15C3B1020F1
:1055100069460918C85CD15C8842ECD10133202B64
:10552000F5D10021052202A8019104F028FD2100F7
:1055300008222C3101A804F019FD082101A800F06F
:10554000E0FC002803D10722294B1A704CE021000F
:10555000284E294F030AB86030707370030C000E98
:105560000822F0701F3101A8B37004F0FFFC08217D
:1055700001A800F0C6FC23006A46F86028331B78B7
:1055800004211371230029331B7801A853712300D0
:105590002A331B782B3493712378D37100F0B1FC3C
:1055A000AA2380B22B76553BF88030716B76000AC7
:1055B000533BEB750122114B7071C6E7102A9AD14B
:1055C00004AE30000E4904F0D1FC00231834F15C25
:1055D000E25C91428FD10133102BF8D1063B2B7640
:1055E000093B6B760133EB750DB0F0BD37BC00089D
:1055F00073170020D00800203412002076170020F6
:1056000058BC00080023F0B50D00C94A040013700F
:10561000C84A497D1370C84A87B01370AA7CE87CD9
:10562000AB7D944602431B0200920B43297D16007A
:10563000DBBA102901D1012B3CD0C04A127801926B
:10564000002A2ED16A7D0292AA7D0392CC2222707A
:10565000CB3A62706A7AE270AA7A2271EA7A62714F
:105660002A7BA2716A7BE271AA7B2272B44A5779C3
:1056700067721779A772D778E77297782773577888
:1056800012786773A273EA7BE273019FE074277458
:1056900067460120A774029FA54A6775039F107093
:1056A000A775202900D1E4E0302900D178E1102944
:1056B00000D08AE111222275022B00D1BCE0032B1D
:1056C00000D1C6E0012B00D0CFE09E4B1B78002B11
:1056D00000D0CAE0002E00D0C7E02F0018373900F4
:1056E0000B3A04A804F042FC290005231D3104A84C
:1056F000C05C5A428854013BF9D22B001E3306226B
:10570000190004A8009304F031FC04AB5B7904AAEF
:10571000AB7704AB1B793800EB77D2786B1CDA7768
:1057200004AA9278AB1CDA7704AA5278EB1CDA77D9
:1057300004AB1B780435EB77FFF748FB002859DBF7
:105740000098FFF743FB002854DC5620FE2340421C
:105750000200552106007A4D23706370A370E37038
:1057600023716371A371543BE3716B791A43D2B215
:105770000B4363722272D3182A791643F6B2A672CB
:105780009B1906000A43E2729B18EA781643F6B2A8
:1057900026739B1906000A4362739B18AA78164366
:1057A000F6B2A6739B1906000A43E2739B186A7847
:1057B0001643F6B20A439B1962749B182A780500B7
:1057C0001543EDB20A435B199B18A5749BB2050003
:1057D000E2741A0A5BB218430B43E3750123267483
:1057E000182615430A436275524A2575A075137031
:1057F0004F4A1370504B1B78002B0BD0013BD9B292
:1058000002220B2900D89AB2002323760233627653
:105810002374E375464B1B78002B00D120E1454BE8
:105820001B78002B05D16374E37D1833DBB2A370C2
:105830009EB2300007B0F0BDEA7D009911430A1E08
:1058400013D101203F49E375087022766276002665
:10585000D0E7EB7D009A1A43131E06D1394A23760E
:10586000137002226376E275F1E70026304A167063
:10587000C0E721232375002E00D08EE0A97D6A7D2C
:105880000902114349BA89B2C0294BD01AD88029DC
:1058900065D00CD851293BD060293ED0502932D058
:1058A0002948FEF73BFD0122234B1A70A2E782290B
:1058B0005AD090295DD08129F2D129002000FFF72C
:1058C0006DFC97E74223FF3399425CD00133994244
:1058D0000AD2E12952D0F0293CD0E029E0D12900B8
:1058E0002000FFF711FD85E7184B99426DD0184B4A
:1058F00099424DD080235B019942D1D129002000EB
:10590000FFF7F2FB76E729002000FFF7CDFA71E7F9
:1059100029002000FFF704FB6CE729002000FFF7B7
:105920004DFB67E729002000FFF77CFB62E7C046DC
:1059300074170020711700207317002070170020C3
:10594000D00800207217002069BC00080110000078
:10595000DFFF000029002000FFF78EFB4AE7290047
:105960002000FFF7EBFB45E729002000FFF73CFC98
:1059700040E729002000FFF77FFC3BE729002000DB
:10598000FFF7F0FC36E729002000FFF73DFD31E787
:1059900029002000FFF780FD2CE70A22314B16E09A
:1059A00031232375002EF8D1A97D6A7D09021143A8
:1059B00049BA89B2C02908D018D881290DD87F29C1
:1059C00003D8512905D84F2905D90622254B1A702D
:1059D0003DE76029F9D0244863E782292CD090293B
:1059E000F9D129002000FFF75BFC03E74223FF33D6
:1059F00099422BD0013399420AD2E129E5D0F0290E
:105A000015D0E029E7D129002000FFF791FCF1E64D
:105A1000164B994215D0164B99421CD080235B013E
:105A20009942D8D129002000FFF772FBE2E6290055
:105A30002000FFF735FBDDE629002000FFF7ECFB37
:105A4000D8E629002000FFF7BFFCD3E6290020009C
:105A5000FFF700FDCEE629002000FFF737FDC9E67D
:105A60001E00E6E67317002094BC00080110000039
:105A7000DFFF000007B501200B4B996901439961D5
:105A800080219A69490502400092009ADA6900185B
:105A90000A43DA61DB6900220B4001930321404293
:105AA000019B00F09FFD07BD0010024010B50400EF
:105AB00088B01422002103A804F061FA104B226878
:105AC0009A421BD180200F4B800099690143996154
:105AD00080219A69890202400192019A5A699020B4
